:020000041008E2
:1000000000000808C9560810CD5A0810B958081041
:10001000D15A0810D55A0810D95A0810000000000B
:100020000000000000000000000000008D590810D2
:10003000DD5A081000000000E15A0810E55A0810C7
:1000400097500810BD500810E350081009510810CF
:100050002F510810555108107B510810A15108105C
:10006000E95A0810ED5A0810F15A0810F55A08100C
:10007000F95A0810FD5A0810015B0810055B0810BA
:1000800040F0200070472DE9F14FB0B09246049146
:100090000DF142013A9A2B9199464A7000200AE0EC
:1000A0001AF8011B0498309A90470028049000F039
:1000B00034860D98401C0D909AF8000050B1252808
:1000C000EED1002100220791089209910A920B912A
:1000D0000C9204E00D9800F022BE41F001011AF8E4
:1000E000010F2028F9D023280CD02B2804D02D284C
:1000F00005D0302809D00BE041F00201EFE741F0D4
:100100000401ECE741F00801E9E741F01001E6E7FE
:100110002A280FD1D9F8002052F8040BC9F8002082
:1001200000280F9003D540420F9041F004010AF1DE
:10013000010A14E00F92DFF8EC3B0AE00F989842B6
:1001400005DA00EB800402EB4402303A0F920AF128
:10015000010A9AF80020A2F130000A28EED39AF89A
:1001600000002E2803D04FF0FF320E9229E01AF83B
:10017000010F2A2809D1D9F8000050F8042BC9F83A
:1001800000000E920AF1010A1BE02D280CBF0AF1B3
:10019000010A002000220E92DFF8884B0BE040B9E4
:1001A0000E9AA24205DA02EB820503EB4503303BCF
:1001B0000E930AF1010A9AF80030A3F130020A2ADC
:1001C000EDD3ADF840100FF660309AF8001000F053
:1001D000EDFE08B11AF8010B8DF842009DF84200BF
:1001E000682805D19AF8000068280CD1622106E041
:1001F0006C2804BF9AF800006C2804D171218DF896
:1002000042100AF1010A12A806901AF801BBBBF1CC
:1002100025012CD01C3900F09481091F022940F2DD
:100220009081133900F0AB84093900F08A81891E6E
:1002300000F04085491E00F0ED84491E022940F27D
:100240008081091F00F0E684491F00F0EF80491EFD
:1002500000F09584491E00F0D780C91E0CD0891E7D
:1002600000F08D84C91E00F08A8400F02EBD0123A9
:100270000793252100F026BDD9F8000050F8044B63
:10028000C9F80000002C059440F0AB802B99487809
:10029000002800F0A1804FF0FF340FF6942000F00A
:1002A00095FE241A40F0398500F01BBD01236A46F3
:1002B00002A9304600F000FE002840F02E85641EA2
:1002C000F4D13096079C12AF74B1309E17F8011B21
:1002D0000498B0470028049000F01F850D98401C3A
:1002E000641E0D90F2D130960A9C3021002C8DF8BE
:1002F00000100CDD309E01236A4602A9304600F052
:10030000DBFD002840F00985641EF4D13096059F7E
:10031000089C74B1309E17F8011B0498B047002860
:10032000049000F0FA840D98401C641E0D90F2D1E8
:1003300030960B9C3021002C8DF800100CDD309E87
:1003400001236A4602A9304600F0B6FD002840F0BD
:10035000E484641EF4D1309605980899099C4718E6
:1003600074B1309E17F8011B0498B0470028049020
:1003700000F0D3840D98401C641E0D90F2D130968D
:100380000C9C3021002C8DF800100CDD309E0123D8
:100390006A4602A9304600F08FFD002840F0BD8477
:1003A000641EF4D130969DF8400041077FF584AE7D
:1003B0002020002D8DF800007FF77EAE309C0123B9
:1003C0006A4602A9204600F077FD002840F0A58487
:1003D0006D1EF4D130946FE60FF63C30059000F0BE
:1003E00080BC0E9D002D04D5204600F00FFE044673
:1003F00007E02A46204600F025FE002814BF041B13
:100400002C46089400F06DBCD9F8001051F8040B8C
:10041000C9F8001020F00004002121F0FF35CDE9DB
:10042000024512AB0593782100F040BC2B99487827
:1004300020B14FF0FF340FF6B02030E79DF84200B6
:10044000622860D0682817D06A283FD06C2806D070
:10045000712847D074282CD07A281DD062E0D9F8B2
:10046000001051F8040BC9F80010002866D14FF0B5
:10047000FF340FF68C2012E7D9F8001051F8040B66
:10048000C9F8001020B94FF0FF340FF6742006E7CA
:100490000D99018000F025BCD9F8001051F8040B2B
:1004A000C9F80010002849D14FF0FF340FF6502052
:1004B000F5E6D9F8001051F8040BC9F8001000282F
:1004C0003CD14FF0FF340FF63820E8E6D9F80010A1
:1004D00051F8040BC9F8001080B94FF0FF340FF643
:1004E0002020DCE6D9F8001051F8040BC9F8001000
:1004F00020B94FF0FF340FF60820D0E60D9AD3173D
:10050000C0E90023EDE3D9F8001051F8040BC9F855
:10051000001020B94FF0FF340FF6E410BFE60D993C
:100520000170DEE3D9F8001051F8040BC9F800108F
:1005300020B94FF0FF340FF6C810B0E60D990160F6
:10054000CFE39DF842004C2807BFD9F80010CA1D20
:10055000D9F80000C21D22F00702C9F80020D2E934
:1005600000010832C9F80020CDE90201C80F02D00D
:1005700007982D210AE0BDF84000810702D50798B1
:100580002B2103E0C00705D50798202112AA11549A
:10059000401C079012A807994BF0200300EB010CB8
:1005A000DDE90201CDE92C01612BCDF814C021ACAD
:1005B0000BD00E98002848BF062105D404BF4BF08D
:1005C0002000672801D101210E91DDE902014F00D1
:1005D00047EAD0777E15FF174FF0FF32974208BFEA
:1005E000964210D1090341EA10510003002908BFC7
:1005F000002808D0ABF1610503211A2D089118D30A
:100600000FF61C1110E0DDE902014A00521512F14B
:10061000010F11D108030FD1ABF1610503211A2D90
:1006200008911FD30FF600110322604600F036FD3B
:1006300057E30FF6E801F7E7DDE902016A4600F04B
:1006400081FDCDE902014BF02000612811D1059810
:1006500030210170821C0592BBF1610F0CBF782123
:10066000582102E00FF6BC01DEE741700798801CBC
:100670000790DDE9020120F0000231F0004308BFDD
:10068000002A02D10026002542E14BF02008B8F1F3
:10069000610F40F092800E98002847BF2121019100
:1006A000401C0190019FDDE92C017F1C00220023EA
:1006B000DDE9024500F07EFD38BF85F00045009978
:1006C0008DF88420091F002F00910DF1850632DD81
:1006D000204629460022002300F086FD2BD21C2252
:1006E00000F09CFD04460D4600F036FEFF1F002F73
:1006F000804609DD00F04CFE02460B4620462946A6
:1007000000F00EFF04460D46F01D0721B8F1000F62
:100710000CDD491E5EBF08F00F0200F8012D4FEA04
:100720002818F3D502E0002200F8012D491EFAD561
:10073000C61D002FCCDC0DF18500361A01980DF195
:1007400085048642D8BF304600282FD4B04206DA4E
:100750000DF185010A5C082AA8BF0F2100DA0021EB
:10076000024621AB134400E0401E13F80159521E0B
:100770008D42F9D00F2904D10DF185018B5C5B1CF2
:100780008B54002A04D50099091D21AC401C00910E
:10079000411E0BD4621813783033DDB23A2DA4BF5A
:1007A0005B443A3B491E02F80139F4D50E99002901
:1007B00040F1AC80421E0E92A8E00099DFF8E826D6
:1007C00047F29750414391FBF2F20092DDE92C454C
:1007D000C2F10702002A25F0004504DD2046294623
:1007E00000F03EFB0BE052420020DFF8C01600F0A4
:1007F00037FB02460B462046294600F003FF04461D
:100800000D46B8F1660F06BF009F0A3706270E98FF
:100810003F18142FC8BF142730208DF884000DF125
:100820008506002F34DD2046294601F00FF80146E9
:100830000A4606F1080304200A26B2FBF6F606EB88
:10084000860EA2EB4E02303203F8012C0A22B6FBD0
:10085000F2F202EB820EA6EB4E063036401E03F893
:10086000026DE9D1083F002F03F10806D9DD0846E3
:1008700000F0FEFF02460B462046294600F050FEDF
:100880000022DFF82C3601F001F804460D46CAE7D5
:100890000DF18500361A0DF1850404E00098401E24
:1008A000761E0090641C20783028F7D0B8F1660FCF
:1008B00002D10098401C04E0B8F1650F0CBF012084
:1008C00000200E9940188642B8BF701E00281DD423
:1008D000B04204DA215C3429C8BF392100DC302160
:1008E0000246631E9D1800E0401E15F80169521E65
:1008F0008E42F9D0392902D1A15C491CA154002AA9
:1009000004D50099491C1C46401C00910646009DD8
:100910000E9F30B2002802DC01260FF210644BF06B
:100920002000662808BF6D1C15D067280FFA85F8CF
:1009300041D118F1040F44DBB84542DA9DF840007C
:100940006D1C010703D430B2B842D8BF074628B2A5
:100950003F1A48BF00270FFA85F8B8F1000F00F3DF
:10096000AF800898411C0891302205990A54002F45
:1009700003DC9DF84000010705D50898411C08914B
:100980002E2205990A5417EB080FB8BF7D422DB2ED
:100990006842ED1932B20B909542B8BF2E46059BC6
:1009A000089836B2099632462146184400F076FB84
:1009B000AD1B0C95CCE0BBF1610F15D14FF0700B66
:1009C00017E030B2B84204DA9DF840100A0758BF69
:1009D00007467F1E48BF0027BBF1670F14BF4FF0CB
:1009E000450B4FF0650B04E0BBF1410F08BF4FF022
:1009F000500B0898411C0891002F059914F8012B01
:100A00000A5403DC9DF84000010719D50898411CE1
:100A100008912E2205990A54002F11DD761E30B25E
:100A20008742B8BF3E460598089B32B2214618441B
:100A300000F034FB089836B23018BF1B08900B97B3
:100A4000059808990844B8F1000F80F800B003D465
:100A50002B224270821C04E02D2145464170821CED
:100A60006D4200212CAB28460AE004460A2094FB84
:100A7000F0F000EB8005A4EB450403F8014B491CA2
:100A800000B20028F1DC012906DC4BF020006528CB
:100A900004BF302002F8010B00292CAB08D1302014
:100AA00002F8010B06E0491E585C303002F8010BD9
:100AB0000029F8DC059908980844121A099247E0C1
:100AC00030B229B288421BDA0598089B32B221461F
:100AD000184400F0E3FA089936B271180891A8EBAF
:100AE0000600002F0B9003DC9DF84000020705D59F
:100AF000059A2E2050540999491C09910C9727E01A
:100B00000598089B2AB22146184400F0C7FA0898B5
:100B1000761B4044002F089003DC9DF840100A0724
:100B200004D5411C08912E2205990A5430B28742FF
:100B3000B8BF3E460598089B32B204EB0801184442
:100B400000F0ACFA089836B23018BE1B08900B962D
:100B50009DF8400000F01400102840F0C280079A71
:100B600008980B99821809988A1882180C980F997E
:100B70008018884280F2B580081A0A90B1E09DF88A
:100B80004200622808D068280ED06A2814D06C2849
:100B90001FD0712810D01CE0D9F8001051F8040BB8
:100BA000C9F80010C0B21AE0D9F8001051F8040BCF
:100BB000C9F8001080B212E0D9F80000C21D22F07E
:100BC0000702C9F80020D2E900010832C9F8002064
:100BD00006E0D9F8001051F8040BC9F80010002104
:100BE000CDE902019DF8400001075AD5DDE9022355
:100BF000002B08BF002A54D04BF02000782850D199
:100C0000079812A930220A54401C431C079301F88C
:100C100000B046E09DF84200622808D068280ED057
:100C20006A2814D06C281FD0712810D01CE0D9F885
:100C3000001051F8040BC9F8001040B21AE0D9F8BE
:100C4000001051F8040BC9F8001000B212E0D9F8F6
:100C50000000C21D22F00702C9F80020D2E90001FD
:100C60000832C9F8002006E0D9F8001051F8040B4A
:100C7000C9F80010C117CDE90201002902D5079873
:100C80002D210AE0BDF84000810702D507982B21ED
:100C900003E0C00705D50798202112AA1154401C73
:100CA000079012A8079901440591594602A800F03F
:100CB0004DF816E001200790D9F8000050F8041B09
:100CC000C9F800008DF848100BE001212522BBF186
:100CD000000F07918DF8482003D0022207928DF86B
:100CE00049B00F9D07990A986D1A08992D1A0B980B
:100CF0006D1A09992D1A0C986D1A9DF840102D1A2D
:100D000048073FF5DFAA2021002D8DF800107FF75E
:100D1000D9AA309E2C46FFF7C9BA4FF0FF3031B048
:100D2000BDE8F08FCBCCCC0C686A6C747A4C0000B8
:100D30007072696E74665F733A2062616420257315
:100D400020617267756D656E740000002DE9FC47C7
:100D500007468A463C6950466F2808BF082505D0DB
:100D6000FFF78EF9782814BF0A251025D7E900016E
:100D70003C2680468946BAF1640F18BFBAF1690F64
:100D800005D1002903D5D8F1000869EB4909B9F16B
:100D9000000F08BFB8F1000F0CD1386B50B9082D07
:100DA0003AD197F83800010736D530223B2684F82F
:100DB0003B2031E08DF800A0404649462A46EB171B
:100DC00000F03AFE3032D0B2761E3A2801960EDAA2
:100DD000A255404649462A46EB1700F02DFE8046B4
:100DE0005FEA010908BFB8F1000F05D108E09DF8DE
:100DF00000001218513AEBE7F868A1198842DBD3DA
:100E0000082D09D197F83800010705D5A05D3028D5
:100E100002D0761E3020A055C6F13C03BB61A1195B
:100E2000F960386B834208DAC31A3B624FF6EF7001
:100E3000398F01403987BDE8F38700280ED597F830
:100E4000380000F01400102808D17A6B7969386AEC
:100E5000521A121AD21A002AC8BF3A62BDE8F387A2
:100E60002DE9D04306460F4614464FF00008DFF840
:100E7000449012E0E00707D542464B4630463946DB
:100E800000F004FD06460F464046494642464B46A2
:100E900000F0FCFC641080468946002CEAD1304604
:100EA0003946BDE8D0830000A08601000000F03F75
:100EB00084D7974100002440F8B505460E461746F2
:100EC0001C4600205CB117F8011BB068A847B06051
:100ED00030B1F06A401CF0620020641EF3D1F2BD14
:100EE0004FF0FF30F2BD00007072696E74665F7380
:100EF0003A20256E20646973616C6C6F77656400BD
:100F00007072696E74663A2062616420256E206199
:100F10007267756D656E7400000000006E616E0092
:100F20004E414E00696E6600494E46003000F0B4F6
:100F30000246106895681318506803EB5004C00708
:100F400048BF4D44A3422DD013F8016B16F00300A7
:100F500004BF13F8010BC01C31090F2907D113F886
:100F6000011B0F3103E013F8017B05F8017B401EE4
:100F7000F9D10029E6D013F8010BC6F38106032E40
:100F800008BF13F8016B00EB0620404228440026FE
:100F9000B71E8F421EBF10F8017B05F8017B761C3F
:100FA000F6D1CFE7F0BC02F10C007047C9B202786D
:100FB0008A421AB11CBF10F8012FF9E718BF0020B0
:100FC00070470268531C03601170704780B500B908
:100FD00006A005490B681BB122220021984701E0B9
:100FE00000F042FE222002BD4C090208636F6E73BE
:100FF000747261696E742068616E646C65723A2007
:10100000626164206D6573736167650000F10103BF
:10101000810704D010F8011B820781B1FAD1026860
:10102000A2F10131914311F0803104BF50F8042F37
:10103000F6E709BAB1FA81F100EBD100401CC01A01
:1010400070470000C9B2830706D0521E22D310F8A1
:10105000013B9942F7D11FE0083A13D302F1040291
:1010600041EA012141EA014150F8043B121F21BF2E
:101070004B40A3F1013C2CEA030C1CF0803FF3D061
:10108000C9B2001F083210F8013B521E28BF91EA76
:10109000030FF8D818BF0120401E704762B38B07BA
:1010A00008D0521E11F8013B00F8013B00F02480EB
:1010B0008B07F6D1830740F0208000BF103A07D39A
:1010C00030B4B1E83810103AA0E83810F9D230BC8A
:1010D000530724BFB1E80810A0E8081044BF51F836
:1010E000043B40F8043BD20724BF31F8022B20F820
:1010F000022B44BF0B7803707047121F17D35B009D
:1011000009D151F8043B20F8023B1B0C121F20F8B8
:10111000023BF6D20BE051F8043B00F8013B1B0AFE
:1011200020F8023B1B0C121F00F8013BF3D238BF22
:10113000121D521E24BF11F8013B00F8013BF8D8E4
:101140007047000010B5144600F002F8226010BD90
:10115000C1F30A5343B14A0012F5001F28D2A3F28B
:10116000FE32A1EB0251704750EA410C20D001F051
:10117000004C31EA0C01B1FA81F204BFB0FA80F3FD
:10118000D2180B3AB2F120032CBF00FA03F19140C0
:1011900041EA0C013EBFC2F1200C20FA0CF31943C6
:1011A0009040524240F2FD33D21A01EB0351704796
:1011B0000022704741EA030C50EA4C0C52EA0C0C36
:1011C0004FF4001C09D307D01CEB410F9CBF1CEB54
:1011D000430F8B4208BF824270471CEB430FFBD882
:1011E000994208BF9042704741EA030C50EA4C0C08
:1011F00052EA0C0C4FF4001C09D307D01CEB410F32
:101200009CBF1CEB430F994208BF904270471CEBF8
:10121000410FFBD88B4208BF82427047124254D420
:1012200040F2FF7C1CEA11530FD0634531D09B186C
:1012300063453CBF01EB0251704701F0004141EAB8
:101240000C510020AFF30080704750EA410320D0DA
:1012500001F0004C91EA0C011CD0B1FA81F30B3B78
:101260009A420DD9D21A994051EA0C01C3F1200CCF
:1012700020FA0CFC61449840531C40F2FF7CD7E7F5
:10128000914041EA0C01C2F1200C20FA0CF3194301
:1012900090407047B0FA80F31533202BE0D3202A1A
:1012A000EED3203A203B9A4209D9D21A00FA03F130
:1012B00041EA0C010020531C40F2FF7CB8E700FA21
:1012C00002F141EA0C0100207047524240F2FF7CDB
:1012D0001CEA11530DD06345DBD0B2EB030C3CBFCD
:1012E000A1EB025170470CF1010221EA035141F4D4
:1012F000801150EA410CCCD001F0004C352A27DC9B
:1013000030B481EA0C01B2F1200309DAC2F1200302
:10131000044601FA03F5D0402843D1409C400CE03C
:10132000C3F12002450020FA03F418BF44F0010481
:1013300021FA03F091400C43002174F1004550F173
:10134000000051EB0C01244230BC7FF47BAF7047AE
:101350006146002076E70000C1F30A5340F21E42C6
:10136000D31A0CDDCA0283F3070342EA505242F05B
:101370000042DA4002EBE17282EAE17070476FEA04
:10138000E17203F2E13008B182F0004070470000E2
:1013900010F0004160B148BF4042B0FA80F2904086
:1013A000D21CC2F5846241EA025202EBD021400510
:1013B00070470000841A71EB030604D26E40001BD4
:1013C000B141121973414FF4001C1CEB410F34BFA3
:1013D0007CEB430683E00C0DA4EB1356362E00F392
:1013E0007C80012E45EAC32341DC43EA525312BFFD
:1013F000D20292025B08240545EAC12141EA50511C
:10140000D2EBC020994125D407D1B0FA80F610FA6A
:1014100006F162D00020203608E0B1FA81F6B14032
:10142000C6F1200220FA02F21143B0404FEAF474F0
:10143000B4EB465434F001064FEA74040AD8D6F5EA
:101440000016760D04F00044F04061FA06F25040B8
:10145000F1404840C00A40EA415021F0004128BF15
:101460005FEA500550F1000044EBD12135E0DB0A82
:1014700045EAC121C90AB6F120050EDD42EA024261
:10148000120CC5F1200603FA06F6EB4042EA060507
:101490006D42984161F100010DE062FA06F5F240FB
:1014A000554063FA06FC82EA0C02F3405A406D4252
:1014B000904161EB030111F4801F05D1641E6205A8
:1014C00002D06D004041494121F48011430875F17B
:1014D000004350F1000041EB045170BC70471CEB1D
:1014E000410F15D223F0004352EA43060BD04FEAD6
:1014F0004C0CBCEB410F04D80C0D661E342EB7DD2E
:10150000EBE7801A994150EA410608BF0021E4E761
:1015100008BF1CEB430F28BF6FF00001DDE70000A0
:1015200070B491EA030F4FF000457FF543AF6B4075
:10153000841A71EB030603D2001BB14112197341E7
:101540004FF4001C1CEB410F34BF7CEB430442E022
:101550000C0DA4EB1356352E4FDC45EAC323DB0AF2
:1015600045EAC121C912B6F120050DDD63FA05F681
:10157000EB4086EA0305124218BF45F00105C0188A
:1015800051F100010CD213E062FA06F5F240554029
:10159000F3415A40B340F3405A408018594107D3B1
:1015A00049085FEA30005FEA350528BF45F00105CC
:1015B00001F58011420875F1004250F1000041EB45
:1015C00004514E0016F5001F70BC38BF7047002054
:1015D000090D090570471CEB410F10D252EA430672
:1015E0000BD0BCEB410F05D80C0DAB43661E342E5F
:1015F000B6DD02E0AB438018594170BC704770BC47
:1016000070470000F0B540F2FF7581EA030C0CF062
:10161000004C15EA11541DBF15EA1357AC42AF42F6
:10162000E5E0BC41C1F31301C3F31303801A9941F0
:1016300043F4801304D2641E0018494180185941B4
:10164000C90241EA5051B1FBF3F603FB1611A2FBAC
:101650000675D7EBC020A94102D2761E80185941E9
:10166000C90241EA5051B1FBF3FE03FB1E11A2FB7C
:101670000E75D7EBC020A94103D2AEF1010E801840
:101680005941890241EA9051760546EA8E2EB1FB16
:10169000F3F603FB1611A2FB0675D7EB8020A941D8
:1016A00002D2761E80185941C90241EA50514EEAD1
:1016B000060EB1FBF3F603FB1611A2FB0675D7EB82
:1016C000C020A94102D2761E80185941C90241EAC0
:1016D0005051B1FBF3F703FB1711A2FB0735D3EB16
:1016E000C020A94167F100070CBF004247F0010785
:1016F00066F3D5274FEA1E31B80814F5806412DD71
:10170000BD0775F1004250EB0E5051EB045111F53D
:10171000801F5CBF41EA0C01F0BD4CF07F6141F0DD
:10172000E0410020F0BDBD076D0840EA0E5041F4D5
:101730008011D4F10104B4F120060ADAC4F12006C4
:101740000200E04001FA06F3E1401843B2401543BD
:101750000EE0342C13DCC6F1200445EA40056D0888
:1017600020FA06F2154321FA06F0A1400D430021AC
:1017700075F1004250F1000051EB0C01F0BD00206A
:101780005FEA0C01F0BDCFB992185B41B3FA83F761
:1017900004BFB2FA82F6BF190B3FB7F120062FBF84
:1017A00002FA06F3BB40C7F1200622FA06F638BF5C
:1017B0003343BA401CB1E419641E33E77F4231F071
:1017C0000041B1FA81F404BFB0FA80F6A4190B3CD1
:1017D000B4F120062FBF00FA06F1A140C4F12006A3
:1017E00020FA06F638BF3143A0403C1B1AE7AC4252
:1017F0001ABF05EA1357AF4212E050EA41061CBF78
:1018000052EA4306BFE750EA4107304661461CBF33
:1018100041EA0551F0BD52EA430C08BFC143F0BD97
:1018200000204FF4001616EB410F98BF16EB430F44
:1018300008BF16EB410F24BFC14305E016EB430F71
:101840000CBF61464CEA0551F0BD0000400D40F26E
:101850001E4C40EAC120BCEB115C40F0004003D4B8
:101860008CF30701C84070476FEAE17070470000D1
:1018700050B1B0FA80F18840C91CC1F584610905F6
:1018800001EBD021400570470146704730B540F26A
:10189000FF7C1CEA11541DBF1CEA135564456545C5
:1018A0003FE0641981EA030C6FF35F530CF0004CC6
:1018B00043F48013C90241F0004141EA505EC50281
:1018C0001100A5FB020200284FF00000EEFB0120F2
:1018D0004FF00001E3FB052118BF42F00102401860
:1018E00000214941E3FB0E01A4F580640D0302D2FF
:1018F00092184041494154F1010470DD450872F1EC
:10190000004250F1000051EB0451A1F5801102D4C6
:1019100041EA0C0130BD40F2FF7E4CEA0E5100203E
:1019200030BD0CEA1355644518BF654581EA030CC8
:101930000CF0004C41D050EA410E1CBF52EA430E5D
:1019400002E06146002030BD24422C441BD15FEAF6
:10195000050EF6D0090302BF01460020AEF1140EB9
:10196000B1FA81F5AEEB050401FA05FE0C35C5F1BF
:10197000200100FA05F5C8404EEA000E6FF35F53F0
:1019800043F480139CE733F00043B3FA83F504BFBC
:10199000B2FA82FE75440B3D641BB5F1200E2FBFD9
:1019A00002FA0EF3AB40C5F1200E22FA0EFE38BF4C
:1019B00043EA0E03AA40641C7CE750EA410E14BFC0
:1019C00052EA430E6FF000014FF4001515EB430F80
:1019D0008EBF194615EB410F9DE7B4D830BDD4F149
:1019E0000104B4F120050FDAC4F12005520828BF24
:1019F00042F0010210FA05FE01FA05F57244E2BF59
:101A0000E0402843E1400FE0352C9ADCC5F120048A
:101A100052EA400220FA05F218BF42F0010231FA00
:101A200005F0A1400A43002172F1004250F100008C
:101A300051EB0C0130BD0000BBBBE1B1B2F5803F02
:101A400080F07E80022A1ED98C46B1FBF2F102FBA7
:101A500011C31B0443EA1043B3FBF2FC02FB1C332B
:101A600080B240EA0343B3FBF2F002FB103240EADB
:101A70000C4000237047022A05D98446B0FBF2F0DF
:101A800002FB10C270474AB105D100F001024908BB
:101A90005FEA3000704700220023704700F0E8B88A
:101AA0000B000200002100207047904271EB030CF4
:101AB000F6D3B3F5803F2FD2F0B5B3FA83F7B1FA7E
:101AC00081F4A7F10F0E3D1B5340CEF1200602FA20
:101AD0000EF2F3415340B5F10F0746D80F3C2C44AA
:101AE0004140C4F12006A040F1414140B1FBF3F672
:101AF00003FB1611A2FB0645001BA94102D2761E6C
:101B00008018594180EA010221FA0EF362FA0EF2BE
:101B100000215A403046F0BD30B4B1FBF3FC03FB6A
:101B20001C11A2FB0C45001BA94103D2ACF1010C16
:101B30008018594130BC02460B4660460021704770
:101B4000B2F1807F65D3F0B5B2FA82F7B1FA81F4D1
:101B5000C7F10F063D1B22FA06F307F1110EF24101
:101B600020355A40B5F10F07B8D94140C4F12006DD
:101B7000A040F1414140B1FBF3FC03FB1C11A2FB6F
:101B80000C45001BA94103D2BCF1010C801859413E
:101B90000F2F12D30F3FC90341EA5041B1FBF3F6B7
:101BA00003FB1611A2FB0645D4EBC030A94102D2BB
:101BB000761E8018594146EACC3C07B34140C7F134
:101BC0002006B840F1414140B1FBF3F603FB16118A
:101BD000A2FB0645001BA94102D2761E801859417E
:101BE00080EA010221FA0EF3C7F1200462FA0EF234
:101BF0000CFA07F05A402CFA04F13043F0BD80EAA9
:101C0000010221FA0EF3002162FA0EF260465A40F8
:101C1000F0BD8C46B1FBF2F102FB11C31B0243EA9B
:101C20001063B3FBF2FC02FB1C331B024CEA0020E6
:101C300043EA1063B3FBF2FC02FB1C331B024CEAC9
:101C4000002043EA1063B3FBF2FC02FB1C331B02CF
:101C50004CEA002043EA1063B3FBF2FC02FB1C32A7
:101C60004CEA002000237047012000F003B8000078
:101C70007047000080B5AFF30080024A11001820C1
:101C8000ABBEFBE726000200D0F80803C005C00D7C
:101C9000704710F541710A6852F480320A6010F5FD
:101CA00041710A6832F480320A60D0F80403704748
:101CB000C0F840127047D0F80802C005C00D704748
:101CC000D0F80802C0F3C030704738B505002800CE
:101CD000FFF7F1FF04002800FFF7F2FF0419002CC2
:101CE00001D1012000E00020C0B232BD0068C0F385
:101CF0008130002801D1802000E040207047016839
:101D000051F00041016070472030026861F39B622E
:101D10000260704780B5FFF7B7FF02BD80B5FFF7DF
:101D2000B8FF01BD40B2002804D0012808D0032824
:101D30000BD00FE0202901D3012000E000207047E4
:101D4000102901D30120FAE7F8E7082901D301207F
:101D5000F5E7F3E70120F2E7F8B507000D001600FC
:101D60001C002900380040B2FFF7DCFF012801D138
:101D7000012017E0380040B2022816D1B6F5803FA6
:101D800011D2202C0FD2DFF8980400EB85010A68ED
:101D900066F317220A6000EB8500016864F3C7014F
:101DA00001600020F2BD0120FCE77FB2032F17D1B4
:101DB000B6F1807F12D2202C10D2DFF8680400EB3D
:101DC00085010A6802F0FF0252EA06220A6000EB6F
:101DD0008500016864F3C7010160E2E70120E1E7E3
:101DE0000120DFE770B504000D0016003100280067
:101DF00040B2FFF797FF012801D101200EE0DFF884
:101E00002814200040B251F820006DB265F309207B
:101E100066F3070064B241F82400002070BD38B5B5
:101E200004000D002900200040B2FFF77BFF0128CD
:101E300001D1012010E0DFF8F413086850F00040F1
:101E400050F0407050F47F0064B264F3092065F3F1
:101E5000070008600868002032BD0100C02049B2B8
:101E6000002905D0022907D004D3032906D006E0B3
:101E7000322004E03A2002E06A2000E07220C0B282
:101E800070470100C02049B2002905D0022907D0BF
:101E900004D3032906D006E0312004E0392002E013
:101EA000692000E07120C0B270470100C02049B233
:101EB000002906D0022908D005D3042909D006D369
:101EC00007E0302005E0382003E0682001E07020C2
:101ED000FFE7C0B270470100C02049B2002906D018
:101EE000022908D005D3042909D006D307E03320FE
:101EF00005E0582003E06B2001E0BF20FFE7C0B2FF
:101F000070470100002049B2002905D0022907D0FE
:101F100004D3032906D006E0132004E0132002E0D6
:101F2000132000E0132040B270470100002049B2A6
:101F3000002905D0022907D004D3032906D006E0E2
:101F4000132004E0132002E0132000E0132040B22D
:101F500070470100002049B2002906D0022908D0AC
:101F600005D3042909D006D307E0132005E0132088
:101F700003E0132001E01320FFE740B270470100A7
:101F8000002049B2002906D0022908D005D304292F
:101F900009D006D307E0132005E0002003E013205A
:101FA00001E00020FFE740B27047010049B200297C
:101FB00005D0022907D004D3032906D006E0222049
:101FC00004E0232002E0212000E0202040B27047FE
:101FD00030B4DFF8402303005BB2D35C0C00E4B202
:101FE000A34200F0A2800B00DBB2082B02D0102B22
:101FF00047D098E0DFF81834040064B253F8244066
:10200000246834F4404405006DB253F825502C6028
:10201000040064B253F82440D4F800426409640117
:1020200005006DB253F82550C5F80042040064B2B3
:1020300053F82440D4F8004254F0070405006DB270
:1020400053F82550C5F80042040064B253F8244008
:10205000D4F800436409640105006DB253F82550BB
:10206000C5F80043040064B253F82440D4F8004398
:1020700054F0070405006DB253F82530C3F800434F
:1020800051E0DFF88C33040064B253F82440246834
:1020900034F4404405006DB253F825502C60040020
:1020A00064B253F82440246854F4804405006DB2AF
:1020B00053F825502C60040064B253F82440D4F83F
:1020C00000426409640105006DB253F82550C5F85B
:1020D0000042040064B253F82440D4F8004254F0A3
:1020E0000F0405006DB253F82550C5F800420400F6
:1020F00064B253F82440D4F8004364096401050035
:102100006DB253F82550C5F80043040064B253F88B
:102110002440D4F8004354F00F0405006DB253F886
:102120002530C3F8004340B2115430BC70472DE94C
:10213000F04104000F0016000821200040B2FFF714
:1021400047FFDFF8D052200040B22856042810D0B4
:10215000200040B22856C0B2C010DFF8BC1211EB0C
:10216000C0110120220052B2AA5C12F00702904076
:102170000860DFF89C82FFB23900200040B258F8B6
:102180002000FFF795FD200040B258F82000FFF72F
:10219000ADFD0700200040B258F82000FFF78BFD8E
:1021A0008742F0D0F6B23100200040B258F820004B
:1021B000FFF77EFD200040B258F82000FFF796FDA3
:1021C0000600200040B258F82000FFF774FD864258
:1021D000F0D0200040B258F82000FFF776FD00282C
:1021E000F7D0200040B258F82000406AC007F8D469
:1021F000200040B2285604280FD0200040B22856B4
:10220000C0B2C010DFF8141211EBC011012064B28B
:102210002A5D12F0070290400860BDE8F0810000DE
:1022200000180040001C0040000C0040000400406A
:10223000F8B504000D0000200821200040B2FFF78F
:10224000C7FE744E200040B2305604280FD0200044
:1022500040B23056C0B2C0106F4911EBC01101201E
:10226000220052B2B25C12F0070290400860684F40
:10227000EDB22900200040B257F82000FFF718FD0A
:10228000200040B257F82000FFF71FFD0028F7D0CC
:10229000200040B257F82000FFF73CFD0028F7D09F
:1022A000200040B257F82000FFF738FD0021200041
:1022B00040B257F82000FFF7FBFC200040B257F86F
:1022C0002000FFF702FD0028F7D0200040B257F8A9
:1022D0002000FFF71FFD0028F7D0200040B257F87C
:1022E0002000D0F84003210049B2715604290FD0D4
:1022F000210049B27156C9B2C910DFF8202112EB92
:10230000C112012164B2335D13F0070399401160DB
:10231000C0B2F2BD480902082DE9F84380460D001D
:1023200016001C000821404640B2FFF751FE394F0D
:10233000404640B2385604280FD0404640B2385686
:10234000C0B2C010344911EBC0110120424652B254
:10235000BA5C12F0070290400860DFF8B490EDB26A
:102360002900404640B259F82000FFF7A1FC404642
:1023700040B259F82000FFF7A8FC0028F7D04046EB
:1023800040B259F82000FFF7C5FC0028F7D04046BE
:1023900040B259F82000FFF7C1FC0021404640B28E
:1023A00059F82000FFF784FC404640B259F820005D
:1023B000FFF78BFC0028F7D0404640B259F82000C8
:1023C000FFF7A8FC0028F7D0404640B259F820009B
:1023D000D0F840033070761C641E002CDDD14046DE
:1023E00040B23856042810D0404640B23856C0B2E9
:1023F000C0100A4911EBC01101204FFA88F817F8F4
:10240000082012F0070290400860BDE8F183000048
:102410000006020844090208040031400800314067
:102420002DE9FC4F9DB004000D00924604263000BB
:1024300080B20AFB00FA9A48B0FBFAF798480AFB08
:102440001700FFF715FA804689465046FFF710FA45
:1024500002000B0040464946FFF7D4F80022914B9A
:10246000FFF714FAFFF7F2F90090342100220DF182
:102470000408404600F01CF93C2100220DF1380808
:10248000404600F015F920009DF97810C0B2C9B29D
:10249000884201D1012000E000209DF9A090DFF8E2
:1024A00008A24FF46B725146C0B200F0D8FA9DF901
:1024B00078004946C0B2C9B2884201D1012000E08B
:1024C00000209DF9A48040F2AD325146C0B200F028
:1024D000C6FA06200290484640B2FFF726FD8DF866
:1024E0000C00484640B2FFF7CCFC82465FF0080B78
:1024F000484640B2FFF7C5FCDFF8B09101AA9AFB4D
:10250000FBF10BFB11AA5146C0B2C010C0014844F8
:1025100000F0B1FB062002909DF97800FFF7F1FC76
:102520008DF80C009DF97800FFF797FC82465FF06C
:10253000080B9DF97800FFF790FC01AA9AFBFBF1CC
:102540000BFB11AA5146C0B2C010C001484400F0B4
:1025500092FB404640B204281ED00820029040461C
:1025600040B2FFF7F6FC8DF80C00404640B2FFF792
:102570009CFC82465FF0080B404640B2FFF795FC9A
:1025800001AA9AFBFBF10BFB11AA5146C0B2C01085
:10259000C001484400F06FFB9DF9A880404640B25E
:1025A00004281ED006200290404640B2FFF7E7FC08
:1025B0008DF80C00404640B2FFF78DFC82465FF07C
:1025C000080B404640B2FFF786FC01AA9AFBFBF1DC
:1025D0000BFB11AA5146C0B2C010C001484400F024
:1025E0004AFB200040B2FFF7E0FC2200D2B2521CAE
:1025F000032140B2FFF7F6FB009B7F1E3A0021004B
:10260000C9B2491C0320FFF7A7FB2100C9B2491C2E
:102610000320FFF704FC6DB2002D05D0022D09D078
:1026200005D3032D09D00AE00020109007E0012017
:10263000109004E00220109001E00320109001208F
:102640000E9000200F90B6B211960820129008202C
:10265000139001208DF8500001208DF853000F4D8C
:1026600000220EA9200040B255F8200000F044FBE3
:102670000021200040B255F82000FFF745FB200064
:1026800040B255F82000FFF73AFB034864B200F867
:1026900004801FB0BDE8F08F44090208000602085C
:1026A00000688909000040404C5708100000314084
:1026B00062F30F2262F31F42401810F0030308D0A8
:1026C000C91A1FD3DB0748BF00F8012D28BF20F827
:1026D000022D130030B414461546103928BF20E9E6
:1026E0003C00FAD8490728BF20E90C0048BF40F851
:1026F000042D890028BF20F8022D48BF00F8012DC5
:1027000030BC7047C91818BF00F8012DCB0728BF8F
:1027100000F8012D7047000082B0002001900020D9
:1027200000900020019009E00098401C0090009863
:10273000B0F5005FF8D30198401C01900198B0F506
:10274000805F02D200200090F1E702B0704780B5B0
:102750000100002000F0DEFD01BD2DE9F043ADF5E4
:10276000137D0700884616001C000020ADF802000B
:102770000020ADF80000002002900020ADF8040019
:102780000020ADF806004046FEF740FC0290DFF85E
:1027900098532888002801D028698047DFF88C03E7
:1027A0000078002800F036812888002800F0148185
:1027B000BDF90600411CADF806103A00010089B2CF
:1027C0000020EB68984747464046FEF71FFC029002
:1027D0006888A97990FBF1F0ADF804003800471C37
:1027E00090F900000028F9D10020ADF8000010E0B9
:1027F0007F1E97F900002F2803D097F900005C286E
:1028000004D1BDF80000401CADF800000298401E45
:102810000290BDF80000022802DA02980028E7D5ED
:102820000298002806D47A1CDFF8041353A800F09D
:10283000A3FF0EE0BDF80000002805D13A00BD4915
:1028400053A800F099FF04E03A00B94953A800F0FA
:1028500093FF0020ADF8020042E0BDF80010BDF883
:102860000020BDF8023053AF9BB2BDF904004343D2
:1028700013FA82F0385C43AA89B25054BDF80000C4
:10288000401CADF80000BDF8000080B2BDF9041096
:1028900088420EDA53A8FEF7B9FBBDF80020BDF858
:1028A00002309BB2BDF904104B4313FA82F1884207
:1028B000D3D2002043A9BDF800208854BDF90600FA
:1028C000411CADF8061043AAE97911FB00F189B269
:1028D0000020EB689847BDF80200401CADF80200EC
:1028E000BDF8027053A8FEF791FBBDF90410B0FBD0
:1028F000F1F0401CBFB2874203D20020ADF80000C7
:10290000C1E732008C4953A800F036FFBDF906003C
:10291000411CADF8061053AAE97911FB00F189B208
:102920000020EB689847002C74D00020ADF802001E
:1029300041E0BDF80010BDF80020BDF802309BB2A8
:10294000BDF90400434313FA82F0205C43AA89B224
:102950005054BDF80000401CADF80000BDF8000068
:1029600080B2BDF9041088420EDA2000FEF74EFB5B
:10297000BDF80020BDF802309BB2BDF904104B43F6
:1029800013FA82F18842D4D2002043A9BDF8002076
:102990008854BDF90600411CADF8061043AAE97938
:1029A00011FB00F189B20020EB689847BDF80200E6
:1029B000401CADF80200BDF802602000FEF726FBC7
:1029C000BDF90410B0FBF1F0401CB6B2864221D232
:1029D0000020ADF80000C1E74FF4807100220DF136
:1029E0000C094846FFF764FE3800A9688847002CA8
:1029F00007D0009433004246504903A800F0BCFEC3
:102A000005E0330042464E4903A800F0B5FE03A896
:102A1000A96888470DF5137DBDE8F08380B50A00ED
:102A20000100002000F067FC002002BD10B53F4807
:102A30000078002809D0444C2100002000F07BFCE5
:102A4000012221003F4800F0C4FE10BD10B5140063
:102A5000220052B2002000F04EFC200010BD38B51C
:102A60000C001500C0B2002803D1384800780028B7
:102A700000D131BD36490878002800D0FEE708783B
:102A8000401C087000F0E2FF00232A0021003148BA
:102A9000FFF763FEFFF740FEF6E7002101804FF6E7
:102AA000FF7141808180FF218171C17100218160AE
:102AB0000021C1600021016170471B4902880A8022
:102AC00042884A8082888A8082798A71C279CA71F2
:102AD00082688A60C268CA6000690861012013497F
:102AE0000870704700B585B06846FFF7D6FF1A48F2
:102AF00002906846FFF7E1FF05B000BD80B5FFF723
:102B0000F1FF002300225FF4E131002000F038FDE6
:102B10004023124A00210B4800F02DFF0121002024
:102B200000F0AFFC01BD00000009020851090208D5
:102B30002C5A08100C5A0810385A081070590810EE
:102B4000DC590810E8080208520902084806020881
:102B5000530902081C5A08104F270810440802089D
:102B600030B4624B1818C009614C14EB00140429EE
:102B70000DD223681F25C8008540AB4352B212F026
:102B80001F02C90012FA01F1194321600CE0091F6C
:102B900063681F25C8008540AB4352B212F01F0284
:102BA000C9008A401A43626030BC7047002A04D1D1
:102BB000012212FA01F1416003E0012212FA01F14F
:102BC0008160704710B48900436C0F248C40A3438C
:102BD00012F00F0212FA01F11943416410BC704760
:102BE00010B4836C01248C40A34312F0010212FA4A
:102BF00001F11943816410BC704710B4C36C012407
:102C00008C40A34312F0010212FA01F11943C1648E
:102C100010BC704710B449001031C36C03248C40C1
:102C2000A34312F0030212FA01F11943C16410BC6C
:102C300070474269012212FA01F14161406970470F
:102C400010B4836901248C40A34312F0010212FAEC
:102C500001F11943816110BC704710B44900036C45
:102C600003248C40A34312F0030212FA01F119432A
:102C7000016410BC7047F8B505000E001400002771
:102C8000002D2FD0002C2DD0226831002800FFF716
:102C90008DFF94F9082031002800FFF761FF626979
:102CA00031002800FFF79CFFA26931002800FFF7E0
:102CB000A4FFE26931002800FFF7ACFF6268310031
:102CC0002800FFF77FFFE26831002800FFF7C5FF0B
:102CD00031002800FFF7ADFF226931002800FFF71F
:102CE000AFFF00E0034F3800F2BD00000000CFBF8F
:102CF0000000304001005A002DE9F041DFF8D031EA
:102D00001C00DFF8D051D5F800C0DFF8CC512D6899
:102D1000DFF8C8613668DFF8C8713F685FF0000E01
:102D20005FF0000E002800F0D080002900F0CD8078
:102D30004C68002C01D18C6805E04C68022C01D154
:102D4000002400E00224D1F810E0D1F81480C64538
:102D500002D3D1F810E001E0D1F814E0BEF1090F80
:102D600008D23CF4404C91F82130002B12D05CF496
:102D7000807C11E0BEF1110F03D2012363F38F3C7D
:102D8000F1E7BEF1210F03D2022363F38F3CEAE7A0
:102D900018009BE03CF4807CCB685B1E13F00F03B3
:102DA0005FEA1C1C5FEA0C1C53EA0C0C012363F362
:102DB000196CC0F800C00B7F002B01D0002300E08D
:102DC000012363F300054B681B0963F34105CB7EC8
:102DD00063F304154B7E63F345150B68012B01D19A
:102DE000012300E0002363F3DF7523005B0863F336
:102DF000820564F3C3054B7F63F308258B7F63F380
:102E00004925CB7F63F38A2591F8203063F3CB25E6
:102E10000B7913F0030363F3196505620B7E63F30B
:102E200008278B7E63F349270B695B1E13F01F0392
:102E30007F097F011F43C0F8007391F8243003F02D
:102E4000FF0310F5417425682D0A2D022B432360E2
:102E50000B7E63F308264B695B1E13F01F03760994
:102E600076011E43C0F8006291F82C3003F0FF0396
:102E700010F5017425682D0A2D022B4323600B6B7E
:102E8000C0F8883F8B6AC0F8C83F91F8383010F519
:102E90007064256863F34925256091F8391010F5B1
:102EA00074631C6861F3CB241C600021C0F8C81E49
:102EB000002A09D000201060002090610020D0601E
:102EC0000020D0610748106200242000BDE8F08196
:102ED0000140AA00785A08107C5A0810805A08103D
:102EE000845A0810EFCDAB0040B2002804D001286E
:102EF00008D003280BD00FE0202901D3012000E0E7
:102F000000207047102901D30120FAE7F8E70829CB
:102F100001D30120F5E7F3E70120F2E7F8B5070058
:102F20000D0016001C002900380040B2FFF7DCFF3E
:102F3000012801D1012017E0380040B2022816D143
:102F4000B6F5803F11D2202C0FD2DFF8E00700EB5E
:102F500085010A6866F317220A6000EB85000168A4
:102F600064F3C70101600020F2BD0120FCE77FB2DD
:102F7000032F17D1B6F1807F12D2202C10D2DFF8A8
:102F8000B00700EB85010A6802F0FF0252EA062250
:102F90000A6000EB8500016864F3C7010160E2E7A5
:102FA0000120E1E70120DFE770B504000D00160005
:102FB0003100280040B2FFF797FF012801D101201E
:102FC0000EE0DFF87017200040B251F820006DB21B
:102FD00065F3092066F3070064B241F8240000207D
:102FE00070BD38B504000D002900200040B2FFF785
:102FF0007BFF012801D1012010E0DFF83C170868B1
:1030000050F0004050F0407050F47F0064B264F320
:10301000092065F3070008600868002032BD01221E
:1030200012FA01F181607047D0F840037047D0F880
:103030000803C005C00D7047C0F840127047D0F8B3
:103040000802C005C00D7047D0F80802C0F3C030B8
:10305000704738B505002800FFF7F1FF040028008D
:10306000FFF7F2FF0419002C01D1012000E000203D
:10307000C0B232BDC0F8C81F7047D0F8C80F704743
:10308000C0F8C01FD0F8C00F7047C0F8881F704745
:10309000D0F8880F7047C0F8801FD0F8800F7047B5
:1030A000016851F000410160704770B506000124CD
:1030B000DFF88856300040B255F82000FFF7DDFFFA
:1030C00040071FD5300040B255F82000FFF7AFFF92
:1030D000002810D0300040B255F82000FFF7A4FFC0
:1030E000DFF85C16320052B288540120DFF8541623
:1030F000320052B28854042176B255F82600FFF708
:10310000BFFF0FE0300040B255F82000FFF7C0FFCE
:10311000800507D54FF4007176B255F82600FFF709
:10312000BAFF00242000C0B270BD38B504001500FD
:1031300049B2002909D002291FD012D3042934D062
:1031400027D3062949D03CD353E0DFF8FC05A06023
:1031500001202073112060731E20A0731120208293
:103160004DE0DFF8E805A0600120207311206073B6
:103170002220A0735C20208241E0DFF8D405A0600B
:1031800001202073112060732320A0735D20208212
:1031900035E0DFF8C005A0600120207311206073C6
:1031A0002120A0735B20208229E0DFF8AC05A0601D
:1031B00001202073112060732020A0735A202082E8
:1031C0001DE0DFF89805A0600120207311206073D6
:1031D0002520A0735F20208211E0DFF88405A06025
:1031E00001202073112060731F20A07359202082BA
:1031F00005E0AE22DFF86C150020FFF730FC6DB261
:10320000002D09D0022D1FD012D3042D34D027D386
:10321000062D49D03CD353E0DFF82C052060002078
:103220002071112060711E20A073112020824DE0BA
:10323000DFF8180520600020207111206071222025
:10324000A0735C20208241E0DFF8040520600020AC
:103250002071112060712320A0735D20208235E051
:10326000DFF8F0042060002020711120607121201F
:10327000A0735B20208229E0DFF8DC0420600020BE
:103280002071112060712020A0735A2020821DE03F
:10329000DFF8C80420600020207111206071252013
:1032A000A0735F20208211E0DFF8B40420600020CA
:1032B0002071112060711F20A0735920208205E029
:1032C000EA22DFF8A0140020FFF7C9FB31BD38B5B2
:1032D0000400DFF86854C9B2200040B255F820005D
:1032E000FFF7AAFE200040B255F82000FFF7B1FE1C
:1032F0000028F7D031BD70B505000E00140006E0BF
:103300003178280040B2FFF7E2FF641E761C002CE3
:10331000F6D170BD38B504000D0007E02878010033
:10332000C9B2200040B2FFF7D2FF6D1C95F9000032
:103330000028F3D131BD10B40022DFF808340200B8
:1033400052B29A5C002A0AD0DFF8F423040064B277
:10335000125D0A70002140B21954012000E00020E3
:10336000C0B210BC704770B505000C00DFF8CC632C
:10337000280040B256F82000FFF78AFE40084000BF
:103380000100280040B256F82000FFF77EFE28001A
:1033900040B256F82000FFF77BFE30F0020001003B
:1033A000280040B256F82000FFF76FFE280040B218
:1033B00056F82000FFF76CFE30F0200001002800D6
:1033C00040B256F82000FFF760FE280040B256F8E1
:1033D0002000FFF75DFE30F040000100280040B201
:1033E00056F82000FFF751FE280040B256F82000A2
:1033F000FFF74EFE30F010000100280040B256F8F2
:103400002000FFF742FE280040B256F82000FFF7E8
:103410003FFE30F480700100280040B256F82000D2
:10342000FFF733FE280040B256F82000FFF730FEC9
:1034300030F480600100280040B256F82000FFF709
:1034400024FE002C0ED0280040B256F82000FFF7D2
:103450001FFE50F4007001006DB256F82500FFF712
:1034600014FE0DE0280040B256F82000FFF710FED1
:1034700030F4007001006DB256F82500FFF705FE2C
:1034800070BD70B505000C00DFF8B062280040B2D6
:1034900056F82000FFF7F1FD400840000100280029
:1034A00040B256F82000FFF7E5FD280040B256F87C
:1034B0002000FFF7E2FD30F008000100280040B2D4
:1034C00056F82000FFF7D6FD280040B256F820003D
:1034D000FFF7D3FD30F020000100280040B256F87D
:1034E0002000FFF7C7FD280040B256F82000FFF784
:1034F000C4FD30F480700100280040B256F820006E
:10350000FFF7B8FD280040B256F82000FFF7B5FDE0
:1035100030F400700100280040B256F82000FFF798
:10352000A9FD280040B256F82000FFF7A6FD30F4B0
:1035300000600100280040B256F82000FFF79AFD15
:10354000002C0ED0280040B256F82000FFF795FD61
:1035500050F0040001006DB256F82500FFF78AFD17
:103560000DE0280040B256F82000FFF786FD30F04D
:10357000040001006DB256F82500FFF77BFD70BD19
:103580002DE9F04FA7B0040089461500200029005E
:10359000C0B2C9B2884201D1012000E000209846A3
:1035A000704E40F2E3123100C0B2FFF758FA20002B
:1035B0004146C0B2C9B2884201D1012000E00020DA
:1035C0004FF4F2723100C0B2FFF749FA02A8142199
:1035D00000F064FA342100221AAE3000FFF768F8D8
:1035E0004C21002207AE3000FFF762F808263000B9
:1035F00080B209FB00F95C48B0FBF9F75A4809FBB7
:103600001700FEF735F982468B464846FEF730F93B
:1036100002000B0050465946FDF7F4FF0022534BC1
:10362000FEF734F9FEF712F98146424652B22900FC
:1036300049B202A8FFF779FD08201B909DF80D0004
:103640008DF870001AAA9DF80C100298FFF713FB72
:103650009DF80C100298FFF7E2FC06201B909DF8E5
:1036600015008DF870001AAA9DF814100498FFF741
:1036700002FB00200790B6B20896082009900220AD
:103680000B9000200C9000201290002014902B4DE5
:10369000200040B255F8200000F046FB34482100DD
:1036A00049B2382211FB02F100EB010207A9200008
:1036B00040B255F8200000F0F5F9200040B255F86E
:1036C0002000FFF7EDFC2200D2B203219DF9160085
:1036D000FFF76AFC4B467F1E3A002100C9B2032067
:1036E000FFF71CFC2100C9B20320FFF77AFC002180
:1036F000200040B2FFF7C5FE0021200040B2FFF7D6
:1037000032FEBDF91800ADF800000720ADF8020048
:1037100001208DF804000022164864B250F82410ED
:10372000684600F09FF927B0BDE8F08F0018004010
:10373000001C0040000C0040000400402C06020861
:10374000140902081C09020800003140000331403E
:103750008003314080063140000731400001314094
:10376000000931408C57081000688909000040406A
:103770004C060208100602080CB430B583B00A46A5
:1037800006A90291044600250194009502AB01A907
:10379000084878441E30FCF776FC019A1570002822
:1037A0004EBF04460198041B204603B030BC5DF8B0
:1037B0000CFB00BF0FD8FFFF82688918816003E00F
:1037C00082684169521A8260816842699142F7D2E7
:1037D00070472DE9F84305001600002D01D00120A7
:1037E00000E000200C00AA22DFF8C811C0B2FFF7E9
:1037F00036F900270020002C01D10327B7E02878F4
:1038000010F0050F01D00427B1E0287850F0040033
:1038100028702869B042C0F0A580D5F81480A86847
:10382000B8EB0008B04568D295F90100002803D034
:10383000022841D01FD391E0424621006868AB685E
:1038400000EB03094846FDF729FC41462800FFF735
:10385000B3FFB6EB080204EB08016868AB6800EB45
:1038600003042000FDF71AFCB6EB080841462800C7
:10387000FFF7A2FF72E05FEA480221006868AB68C8
:1038800000EB43094846FDF709FC41462800FFF7D5
:1038900093FFB6EB0802520004EB48016868AB687E
:1038A00000EB43042000FDF7F9FBB6EB08084146A6
:1038B0002800FFF781FF51E05FEA88022100686875
:1038C000AB6800EB83094846FDF7E8FB414628005A
:1038D000FFF772FFB6EB0802920004EB88016868FC
:1038E000AB6800EB83042000FDF7D8FBB6EB0808BB
:1038F00041462800FFF760FF30E095F901000028FD
:1039000003D002281DD00ED328E0320021006868C1
:10391000AB6800EB03042000FDF7C0FB310028007A
:10392000FFF74AFF1AE0720021006868AB6800EBFD
:1039300043042000FDF7B2FB31002800FFF73CFFF5
:103940000CE0B20021006868AB6800EB8304200043
:10395000FDF7A4FB31002800FFF72EFF2869861B26
:103960002E6100E00527287810F0FB002870380051
:1039700040B2BDE8F283F8B504000E0017001D0048
:10398000002C01D0012000E000204FF4077209490B
:10399000C0B2FFF764F800206760002121706670F4
:1039A0000021A1600021E1602561656140B2F2BDA6
:1039B000000000000C570810010009B2002908D4CB
:1039C000012210F01F018A401B4900B2400941F852
:1039D00020207047010009B2002908D4012210F00C
:1039E0001F018A40154900B2400941F82020704764
:1039F000020012B2002A04D44901114A00B2115443
:103A000007E049010F4A00B210F00F00104400F81F
:103A1000041C7047002800D162B60B480168491C9D
:103A20000160704772B608490868002802D008682B
:103A3000401E08600868704700E100E080E200E096
:103A400000E400E018ED00E04009020880B5FFF74F
:103A5000E9FF00F0B1F901BD80B5C9B200B2FFF7CE
:103A6000C7FF01BD70B504000D001600200000F076
:103A7000B3F92900B4F9000000F0CAF93100C9B265
:103A8000B4F90200FFF7E8FFB4F90200FFF7A2FF64
:103A9000B4F90200FFF790FF70BD0000002200F0B3
:103AA000C9B900002DE9F44FDFF8D822DFF8D83289
:103AB0001B68DFF8D8422468DFF8D4522D68DFF89D
:103AC000D4623668DFF8D0723F68DFF8D0C2DCF825
:103AD00000C0DFF8CCE2DEF800E0DFF8C882D8F8FA
:103AE0000080DFF8C492D9F80090DFF8C0A2DAF8BD
:103AF00000A0002800F01581002900F012810A685A
:103B0000022A06D191F82620002A02D15FF0000B8C
:103B100003E0D1F804B0BBF1010B91F82420002A96
:103B200001D0012200E0002262F3104333F440434D
:103B30006BF30303022262F3196303600A7812F045
:103B4000030262F31964046491F82520002A01D06D
:103B5000012200E0002262F38615CA7E002A01D00D
:103B6000012200E0002262F38A254A7E002A01D069
:103B7000012200E0002262F308258A7E002A01D09B
:103B8000012200E0002262F349258A6B521E12F0E6
:103B90000F0262F313450A69521E12F00702ED0884
:103BA000ED0015434A6962F304154A69520862F34D
:103BB000451585640A7B002A01D0012200E000221D
:103BC00062F308260A7E002A01D0012200E00022CA
:103BD00062F349268A68521E12F01F0276097601A6
:103BE0001643C0F800630A7F02F0FF023F0A3F025B
:103BF000174391F8202002F0FF0262F31747C0F844
:103C0000107391F82720002A01D0012200E0002241
:103C100062F3082C0A69521E12F007025FEADC0CFC
:103C20005FEACC0C52EA0C0C4A6962F3041C4A6944
:103C3000520862F3451CC0F844C00A7B002A01D038
:103C4000012200E0002262F3082E8A68521E12F060
:103C50001F025FEA5E1E5FEA4E1E52EA0E0E0A68FF
:103C6000012A01D1012200E0002262F3104EC0F8C7
:103C700000E291F83C2002F0FF025FEA18285FEAB8
:103C8000082852EA0808C0F8048391F82820002A7E
:103C900001D0012200E0002262F35969CA6A012AB8
:103CA00001D1012200E0002262F318694A6B012A67
:103CB00001D1012300E00023009A63F3104991F839
:103CC000303003F0FF035FEA19295FEA092953EA5C
:103CD0000909C0F8509091F8443003F0FF035FEAFF
:103CE0001A2A5FEA0A2A53EA0A0AC0F804A28B6C6D
:103CF000C0F8883F096CC0F8C81F002A10D0002007
:103D0000506000201060002090600020D0600020F3
:103D100010620020D06200201063DFF8940050632E
:103D200000221000BDE8F28FDFF8881001605FF418
:103D3000401101640021816440F20711C0F80013B2
:103D40000022C0F804230022C0F81023002242649D
:103D5000C0F800120021C0F8041200210165002102
:103D6000C0F8C81E0021C0F8881E0021C0F8C81F76
:103D70000021C0F8881F0021C0F8081F0021C0F8EA
:103D8000481F70470160AA00885A08108C5A081012
:103D9000905A0810945A0810985A08109C5A081003
:103DA000A05A0810A45A0810A85A0810AC5A0810B3
:103DB000EFCDAB000F000003002008E0DFF8141087
:103DC000C2018A5822F00042C301CA50401C3F2859
:103DD000F4DB70470000384001000020124A1368ED
:103DE000002913D08A7812F00702DB08DB001343A6
:103DF0000A79002A01D0012200E0002262F3DF7379
:103E00000A4AB1F9001042F8213000E00548704735
:103E1000074B1A68002A03D01A6800B242F8201033
:103E20007047000001005600B05A081000A0204062
:103E3000FC05020800B500BF1300964694461039F1
:103E400028BFA0E80C50FAD85FEA417C28BF0CC01C
:103E500048BF40F8042BC90728BF20F8022B48BFF1
:103E600000F8012B00BD0000DFF8E8110868C0F37E
:103E70004000002801D0022002E0086810F0010094
:103E80007047DFF8D401006810F0010070470000AF
:103E9000002801D0022801D3012002E0401E086062
:103EA000002070471CB5FF246946FFF7F1FF40B2C0
:103EB000002802D02000C0B207E0DFF8A00100997E
:103EC00050F8210010F00100C0B216BDDFF8E40187
:103ED0000068800810F001007047000038B5040049
:103EE000200040B2032811D3DFF8C0511822DFF8B8
:103EF0007011280000F0F4FA0020E87540F649003F
:103F0000DFF8AC110860002000F022FBDFF8A811F8
:103F1000200040B251F82000C0F30020002805D056
:103F200064B251F8240010F00F0000E0FF2032BD11
:103F300038B50400200040B2032811D3DFF86C51DB
:103F40001822DFF81C11280000F0CAFA0020E875DA
:103F500040F67E00DFF858110860002000F0F8FA03
:103F6000DFF8540164B250F82400C0F3011040B2ED
:103F700032BDDFF848010068C0F30720704738B54C
:103F80000400042C11D3DFF824511822DFF8381173
:103F9000280000F0A5FA0020E87540F29510DFF83F
:103FA00010110860002000F0D3FADFF8180150F873
:103FB000240010F00700010009B2042907D1DFF83E
:103FC000000150F8240010F01F0050F4807000B27F
:103FD00032BDDFF83C1209688A03920B0260090EB9
:103FE00011F00101C171DFF8201209680A00D20442
:103FF000D20C82800A00120C02F0FF020281090C2E
:1040000001F0FF014181DFF8C410096811F00F02CF
:1040100002730A00C2F3031242730A00120AD204A6
:10402000D20CC281090F11F003010174DFF8DC1119
:1040300009680A00120A12F0070282710A00120CC3
:10404000D205D20D4282890F11F00101017570472E
:10405000000000002415264040152640401626404A
:10406000D85508101CB50C006946FFF711FF010078
:1040700049B2002901D040B217E0DFF85803009997
:1040800050F8210010F07F012160C0F3042161602D
:10409000C0F30441A1600100090F11F00301617335
:1040A000C00E10F001002073002016BDD0080208D9
:1040B0002409020810002740401226400800204032
:1040C00000012640001226402856081038152640C8
:1040D00080B50100DFF8E4031822FCF7EFFF0120B0
:1040E000DFF8DC130870002002BDDFF8D813096880
:1040F000C90F002908D0DFF8C8130978002907D1B3
:104100000021016003207047002101600320FAE7CD
:10411000DFF8A813096801600020F4E710B5040077
:10412000FFF7A2FE002803D10020206003200DE04D
:10413000DFF88C030078002805D0DFF88003806862
:104140002060002002E000202060032010BD00005D
:10415000DFF86C130978002905D0DFF8601349688F
:104160000160002002E00021016003207047000090
:10417000DFF854130968C90F002908D0DFF840138D
:104180000978002907D10021016003207047002130
:1041900001600320FAE7DFF82413C96801600020FA
:1041A000F4E7DFF828130968C90F002908D0DFF801
:1041B00010130978002907D10021016003207047FE
:1041C000002101600320FAE7DFF8F01209690160BD
:1041D0000020F4E710B50400FFF778FE002803D1B3
:1041E0000020206003200DE0DFF8D40200780028D2
:1041F00005D0DFF8C80240692060002002E00020FE
:104200002060032010BD0000341526403C152640D8
:104210003015264010B50C00C0B2FFF7B0FE0028E4
:104220000ED0012810D0022812D0B0F5887F13D00C
:1042300040F21111884213D0B0F58A7F14D017E0F4
:104240002000FFF752FF16E02000FFF781FF12E089
:104250002000FFF763FF0EE02000FFF789FF0AE070
:104260002000FFF7B7FF06E02000FFF79AFF02E00B
:1042700000202060032010BD80B501000020FFF762
:10428000C9FF02BD80B50022D2B2824203D2002013
:104290000860012003E0401CC0B2FFF7BBFF02BD75
:1042A00018B587B004006846FFF7E6FF010049B281
:1042B000002903D00021216040B22BE001A8FFF7C4
:1042C00088FE9DF91400022803D100982060002088
:1042D00020E0DFF8FC010068C00F002808D0FFF7DD
:1042E000D0FDC0B2002807D100202060032011E0DB
:1042F0000098206000200DE0009901984143BDF82E
:104300000800B1FBF0F09DF80B10491CB0FBF1F078
:104310002060002008B010BD78B585B005000C0005
:1043200069462800C0B2FFF7ADFF010049B200297D
:1043300003D00021216040B249E001A92800C0B2A9
:10434000401CFFF78FFE40B2002811D0DFF88461D7
:104350001822DFF88411300000F0C2F80020F07558
:1043600040F65310DFF874110860002000F0F0F8F8
:1043700018482900C9B250F82100C00F002807D002
:104380009DF91100022807D10098206000201EE04E
:104390000098206000201AE0EDB26D1C2800FFF7A5
:1043A00081FD0100C9B2002902D0C0B2FF2803D1AB
:1043B0000020206003200AE0009901984143029800
:1043C000B1FBF0F00399B0FBF1F02060002006B0E3
:1043D00070BD00000016264010B50023421E0400E8
:1043E000E4B2002C03D10800FFF75AFF0CE01400E0
:1043F000DBB2E4B2A34204D31000C0B2FFF78CFFDB
:1044000002E0C0B2FFF706FF10BD38B505000C0092
:10441000280040B2FFF762FD0100C9B2FF2904D1B4
:104420002000FFF762FE40B21BE06946C0B2FFF712
:10443000D3FF010049B2002903D00021216040B21E
:104440000FE0280040B2FFF773FD40B2002805D00E
:1044500002280BD006D303280CD00FE00098206070
:10446000002032BD009840082060F9E700988008DD
:104470002060F5E70098C0082060F1E70020206088
:104480000320EEE71CB5040069460020FFF7BDFFDE
:10449000010049B2002903D00021216040B207E0A9
:1044A000FFF767FD0099401CB1FBF0F02060002091
:1044B00016BD80B5FFF7E6FF02BD0000B808020890
:1044C0005009020818152640081526400C152640EC
:1044D00030152640D0080208285608102409020882
:1044E00001B58B071AD1830724D1121F21D351F8AC
:1044F000043BA3F1013C2CEA030C1CF0803C04BFFC
:1045000040F8043BF1E79CFA8CFCBCFA8CF1C1F159
:1045100018018B40CB4040F8043B13E0042A09D338
:1045200011F8013B521E00F8013B5BB18B07F7D13C
:10453000D9E7121D5AB111F8013B521E00F8013B98
:1045400003B1F8D111001CBF0022FEF7B5F801BD80
:1045500001BEFEE780B5234A23490B6893423ED053
:104560000A60224A12684A62214A8A6202684A60E4
:1045700042688A608268CA60C2680A6102694A61E8
:1045800042698A618269CA61C2690A62F1EE102ACF
:1045900012F0900F23D0174A8A62026ACA62426AF6
:1045A0000A63826A4A63C26A8A63026BCA63426BA5
:1045B0000A64826B4A64C26B8A64026CCA64426C8D
:1045C0000A65826C4A65C26C8A65026DCA65426D75
:1045D0000A66826D4A66C26D8A66006EC86600F021
:1045E0000BF801BDF7F6F5F4D407020828ED00E05A
:1045F000A4A3A2A1ABAAA9A8FEE7000080B5010070
:10460000C9B2012000F0AFF801BD38B410F4F84190
:104610008205920D00230400A4B2240414F0004487
:104620000D00ADB2002D15D1100080B2002822D0AF
:10463000520001E052005B1C5005FBD59BB2D3F148
:10464000700314EBC35492B2DFF8A80310EA4230AF
:10465000041910E089B2B1F5F84F05D192B214EB0C
:10466000423414F1FF4406E080B24004400C10F5DF
:10467000E03014EB403400949DED000A31BC7047EB
:1046800010B52DED068BB0EE409AF0EE609AB0EECC
:10469000418AF0EE618AB0EE00AA29EE290A08EEFE
:1046A000280A20EE0A0A29EEA91A08EE081AF7EEDF
:1046B000000A41EE4A0ADFF84043DFED50AA00F05D
:1046C000A5F920EE2A0A84ED000A29EE080A08EE70
:1046D000E90A20EE0A0ADFED4A0AB4EE600AF1EEBA
:1046E00010FA02DBB7EE000A08E0FFEE000AB4EEB3
:1046F000600AF1EE10FA01D5B0EE600A00F0BCF9E4
:1047000020EE2A0A84ED010A29EE280A09EE880A19
:1047100020EE0A0A28EE081A08EEA81AF7EE000A98
:1047200041EE4A0A00F072F920EE2A0A84ED020AEC
:10473000BDEC068B10BDE0B5042002900220019074
:10474000022000900223DFF8B42200210220FDF7AE
:1047500067FE0323012201216B2000F0FCF91420E5
:1047600000F0C6FA07BD80B50A000821DFF89032D4
:104770001960D2B20100C9B20220FDF7D8FC0820AE
:10478000DFF88012086001BD80B501000820DFF865
:104790007022106051F08001C9B20220FDF748FD7F
:1047A0000821DFF860221160C0B202BD80B50F2081
:1047B000FFF7EAFF702801D1002000E00120C0B21D
:1047C00002BD80B5FFF7F2FF002801D0012014E000
:1047D00044211220FFF7C7FF06211020FFF7C3FF77
:1047E00006211120FFF7BFFF04211520FFF7BBFFB3
:1047F00001211720FFF7B7FF002002BDE12E65421F
:104800000100803FE0B57C4801680091694642683C
:104810004A60806888600C216846FEF7FFF8042132
:104820007948FEF7FBF807BD80B500210A20FFF7A5
:104830009AFF8020FFF7E2FE5E20FFF7A5FF010050
:1048400011F0C70151F01801C9B25E20FFF78BFFCC
:104850004420FFF799FF010051F00201C9B2442042
:10486000FFF781FF4420FFF78FFF800704D400206B
:10487000FFF7C4FE01201EE00420FFF785FF0100C2
:1048800051F00201C9B20420FFF76DFF0420FFF7C9
:104890007BFF800704D40020FFF7B0FE01200AE070
:1048A0000020FFF7ABFE06210A20FFF75CFF142073
:1048B00000F01EFA002002BD2DE9F8432DED048B17
:1048C00084B05FF000084E4D0820286002236A463D
:1048D0009B210220FDF720FD4A4E082030609DF804
:1048E00000009DF80140240214F480740443200069
:1048F00080B2002801D1012074E0002763E0082085
:104900002860072301AAF8210220FDF705FD0820F1
:1049100030609DF80400C0B2C008C0B2132851D165
:1049200001A948788A7850EA022091F803809DF81E
:10493000081058EA01289DF809909DF80A1059EAD4
:10494000012980B2FFF761FEB0EE408A404680B296
:10495000FFF75BFEF0EE408A484680B2FFF755FE57
:10496000B0EE409A28EE080A08EEA80A09EE090AF5
:10497000DFED1F0AB4EE600AF1EE10FA09DB00F079
:1049800041FA88EE008AC8EE808A89EE009AB7EE76
:10499000000AF7EE000A30EEC00A00F033FA1648BB
:1049A00080ED090A80ED0A8AC0ED0B8A80ED0C9A31
:1049B000F0EE491AB0EE681AF0EE480AFFF760FE12
:1049C0005FF001087F1C3800210080B289B2884264
:1049D00095D35FFA88F8B8F1000F01D0002000E00D
:1049E0000120C0B204B0BDEC048BBDE8F28300002E
:1049F0000100803F00E07F008408020800127A0076
:104A00008406314088063140C85A081052EC101A0A
:104A1000B0EEC00AC80F49005200F0EEE00A28BF0D
:104A20000C3011F1807F38BF12F1807F0CD28A42A6
:104A300038BF80F00400124214D034BF80EE800AE8
:104A400080EE200A00F0EEB911F1807F08BF80F0FF
:104A5000040098BF12F1807F08D88A4214BF002258
:104A60004FF07E5200EE102A00F0DCB96FF00041EA
:104A700000EE101A7047000010EE101A4FF07E5230
:104A800001EE902AC80F31F0004120D000EE101A3C
:104A9000914212D871EEC00A0D4A31EE801A61EED1
:104AA000200AF1EEE00A914286BF80F0040080EE19
:104AB000800A80EE200A00F0B5B9490011F1807F2C
:104AC0009CBF6FF0004100EE101AAFF300807047FA
:104AD000F404353F012212FA01F18160704701228E
:104AE00012FA01F141607047012212FA01F1C1602E
:104AF000704780B5C9B200290ED00100C9B20822A2
:104B000091FBF2F302FB1311354AC0B2C010C00191
:104B10001044FFF7DFFF0DE00100C9B2082291FB4E
:104B2000F2F302FB13112E4AC0B2C010C0011044B0
:104B3000FFF7D5FF01BD80B50100C9B2082291FB86
:104B4000F2F302FB1311264AC0B2C010C001104498
:104B5000FFF7CAFF01BD2DE9F8418DB004000E003A
:104B600015001F0034210022E8464046FDF7A0FD55
:104B700076B2002E0ED17FB2002F02D0022F03D0CA
:104B800005E00F2001900DE0082001900AE00820C8
:104B9000019007E07FB2042F02D10F20019001E0C5
:104BA0000E2001902000C0B2C0280FD02100C9B251
:104BB00008206A4691FBF0F300FB1311084823001C
:104BC000DBB2DB10DB011844FEF755F82900C9B24F
:104BD0002000C0B2FFF78DFF0EB0BDE8F0810000ED
:104BE0000000314040B2002804D0012808D003283A
:104BF0000BD00FE0202901D3012000E000207047F6
:104C0000102901D30120FAE7F8E7082901D3012090
:104C1000F5E7F3E70120F2E770B505000E00140098
:104C20006400641C3100280040B2FFF7DBFF01285C
:104C300001D101200EE0280040B200280DD1B4F5CA
:104C4000807F08D2674800EB8600016864F30F217B
:104C50000160002070BD0120FCE76DB2012D0CD178
:104C6000B4F5803F07D2604800EB8600016864F32A
:104C700017210160EDE70120ECE70120EAE770B5BC
:104C800004000D0016003100280040B2FFF7AAFF13
:104C9000012801D101200DE05449200040B251F813
:104CA00020006DB265F3092066F3070064B241F895
:104CB0002400002070BD38B504000D00290020003C
:104CC00040B2FFF78FFF012801D101200FE04849D2
:104CD000086850F0004050F0407050F47F0064B21B
:104CE00064F3092065F3070008600868002032BDFE
:104CF000F8B504004FF4FA5044433E4D3E4E0021B7
:104D00002878C001304400F0ACF914E02878C001E4
:104D1000304400F0A8F9B842F8D3384F3C1928784D
:104D2000C001304400F09FF93F1839002878C001D5
:104D3000304400F096F94CF25137BC42E6D2287864
:104D4000C001304400F08FF98442F8D2F1BD38B58B
:104D500094B0502100226C462000FDF7A9FC0022EF
:104D60000121274890F90000FFF789FF092200215F
:104D70000120FFF751FF00210120FFF79CFF5FF0AA
:104D8000FF30009000208DF8040000208DF8050011
:104D900000208DF8060000208DF8080003208DF813
:104DA00044000120129001208DF80700114C124D93
:104DB00069462078C001284400F086F82078C001B8
:104DC000284400F049F900212078C001284400F06F
:104DD00048F92078C001284400F047F915B030BDEB
:104DE000000000000010004000140040000C0040D3
:104DF000000400404A06020800003940B03CFFFFB2
:104E000049060208B5EEC00AF1EE10FA02D4B1EE7E
:104E1000C00A70476FF0004C00EE10CAAFF300807C
:104E2000704700001AA210EE101A43F2A40CC3F649
:104E3000896CF2EC060A614509DB00EE803A70EEFF
:104E4000800A83EE200A40F0020010EE101A49009A
:104E5000D1F1E6410BD860EE000A20EE203A03EED5
:104E6000010A01EEA02A42EE202A80EE220A400822
:104E700010F0020F18BFB1EE400A02EB8002D2ED33
:104E8000000A30EE200A28BFB1EE400A7047000049
:104E9000D7B3DD3F6AD5033F2B94A93DB82A593FCC
:104EA0000000803F000080BF00000000920A063F23
:104EB000DB0FC93F920A863FDB0FC93F920A0640CB
:104EC000DB0F4940368D274010B4012291F94C3058
:104ED000052B03D291F94D30052B01D31000AFE023
:104EE000002800F0AC80002900F0A980554A126823
:104EF00091F9053063F392428B7913F0030363F366
:104F000011420B7A13F0070363F31A62CB7963F350
:104F10009E720B7D63F3000291F8243063F341022B
:104F200002600A7902F0FF0210F130031C68240AC3
:104F3000240222431A6091F90520012A0DD191F92A
:104F40000620002A02D10022826008E091F90620A2
:104F5000012A04D10A68826001E001228260CA68E5
:104F600002610A694261CA6982610A6AC2610A68A9
:104F70000262354A12680B7E03F0FF03120A120226
:104F80001A4391F8303003F0FF0363F3174291F8AE
:104F9000403003F0FF0363F31F6291F8483003F0E1
:104FA000FF0363F30F224264284A126891F83830F5
:104FB00003F0FF03120A12021A4391F8283003F09B
:104FC000FF0363F30F228264214A12688B7D13F082
:104FD0000303920892001A4391F8253013F003035B
:104FE00063F38B2291F82C3013F0030363F3051263
:104FF00091F8343013F0030363F3092291F83C3045
:1050000013F0030363F3871291F8443013F00303A2
:1050100063F38302C2640F4A126891F84C3013F0B4
:105020000703D208D2001A4391F84D3013F007035A
:1050300063F30612426591F9151081670022100092
:1050400010BC7047B45A0810B85A0810BC5A08105F
:10505000C05A0810C45A0810016851F0004101609C
:10506000704781607047806870474030016851F038
:105070001001016070470000010009B2002908D446
:10508000012210F01F018A404F4900B2400941F847
:1050900020207047FEE780B54C4800684C48016806
:1050A0000800C00F002805D04A488905890D50F82E
:1050B000210080470020FFF7DFFF01BD80B5464893
:1050C0000068464801680800C00F002805D0414824
:1050D0008905890D50F8210080470120FFF7CCFF9A
:1050E00001BD80B53E4800683E4801680800C00F19
:1050F000002805D037488905890D50F821008047E0
:105100000220FFF7B9FF01BD80B537480068374876
:1051100001680800C00F002805D02E488905890DB8
:1051200050F8210080470320FFF7A6FF01BD80B59E
:105130002F4800682F4801680800C00F002805D0DC
:1051400024488905890D50F8210080470420FFF785
:1051500093FF01BD80B52848006828480168080011
:10516000C00F002805D01B488905890D50F8210083
:1051700080470520FFF780FF01BD80B5204800680B
:10518000204801680800C00F002805D01148890593
:10519000890D50F8210080470620FFF76DFF01BD03
:1051A00080B519480068194801680800C00F002838
:1051B00005D008488905890D50F82100804707204F
:1051C000FFF75AFF01BD000080E200E0585A0810C6
:1051D00000012040000002085C5A08100401204031
:1051E000605A081008012040645A08100C01204041
:1051F000685A0810100120406C5A08101401204011
:10520000705A081018012040745A08101C012040E0
:1052100080B500F003F900F003F800F089F801BD53
:105220007CB568464F49D1E90023C0E9002300203E
:105230000AE069460200D2B201EBC2014968491C8A
:1052400011F0070F0DD1401C0100C9B2002909D18E
:1052500069460200D2B211F8321011F0070FE8D0FF
:10526000FEE7FEE7404C207810F0070F00D0FEE785
:105270003E4D2868401C10F0070F00D0FEE70026C6
:1052800022E068463100C9B200EBC100416830003D
:10529000C0B252F8300000F042F814E000200028BC
:1052A000EFD02168491E3000C0B252F8300000F043
:1052B00036F868463100C9B200EBC1004168286881
:1052C000401C00F02CF8761C3000C0B2002825D11C
:1052D0006A463000C0B252F83000002813D020686F
:1052E0003100C9B252F8311088420AD36846310001
:1052F000C9B200EBC10040682168884201D3012097
:10530000CDE70020CBE768463100C9B200EBC10011
:10531000406821688842C1D30120C0E773BD0022E4
:10532000002302E0C0E9002308308842FAD3704726
:1053300030B40F4880080F490F4A002308E01C00D2
:10534000E4B252F824401D00EDB241F825405B1C48
:105350001C000500E4B2EDB2AC42F0D30748016096
:1053600030BC7047505A08100457081008570810EE
:1053700080000000000C02080000081008ED00E0AA
:1053800080B500F001F801BD38B586B068462B49FC
:105390001822FBF793FE6846FEF79AFE40B20028FB
:1053A0000DD0274C182227492000FFF799F800203C
:1053B000E0754A20244908600020FFF7C9F8234D12
:1053C0002800FFF776F840B200280DD01C4C1822B8
:1053D0001C492000FFF784F80020E0754C201A4992
:1053E00008600020FFF7B4F81949286808600A68C7
:1053F000184882181848B2FBF0F0184A1060184894
:10540000096801F2E7314FF47A72B1FBF2F1016001
:105410000068C0031349086007B030BD80B500F0D4
:1054200025F811490A6852F470020A60BFF34F8FE1
:10543000BFF36F8F00F01EF801BD0000C4590810C3
:10544000D008020884550810240902082809020817
:105450002C0902083F420F0040420F0034090208A5
:10546000300902083809020888ED00E0EFF31080E7
:1054700072B6704780F310887047000070B5002442
:1054800000250026284800F05BF8FDF737FB0323D2
:1054900001220121BF20FFF75EFBFFF74CF903E07B
:1054A0006420FFF725FC6D1C280080B21E2807DA57
:1054B0000F20FFF769F904002000C0B27028EFD177
:1054C000E4B2702C0FD0194800F048F88020184939
:1054D00008606420FFF70CFC8020164908606420F7
:1054E000FFF706FCF2E7FFF76CF9002803D012483B
:1054F00000F034F8FEE7FFF797F9002803D00F48D3
:1055000000F02CF8FEE7FFF7D7F9FFF77BF9761CE0
:105510003000C0B2322803DB0026BF20FFF70BFBB0
:105520000520FFF7E5FBEEE700688909045808103D
:10553000840B3140880B314054590810985808109A
:1055400080B505490860FFF71BFFFFF700FC00204E
:10555000FEF760FA01BD00003C0902080EB4C0B5B8
:10556000024603A800210190009101AB01210448EB
:1055700078440C30FAF787FD06BC5DF810FB00BFDD
:1055800075040000443A5C736D6172746361725C0F
:10559000656D7074795F70726F6A6563745C6C6955
:1055A000627261726965735C73646B5C747669695D
:1055B0006268346D5C7372635C73797374656D5C7F
:1055C00073797374656D5F747669696265346D5F54
:1055D000636D342E63000000443A5C736D61727435
:1055E0006361725C656D7074795F70726F6A656318
:1055F000745C6C69627261726965735C73646B5C24
:10560000747669696268346D5C7372635C64726934
:10561000766572735C737973636C6B5C63795F73CB
:105620007973636C6B2E6800443A5C736D617274BD
:105630006361725C656D7074795F70726F6A6563C7
:10564000745C6C69627261726965735C73646B5CD3
:10565000747669696268346D5C7372635C647269E4
:10566000766572735C737973636C6B5C63795F737B
:105670007973636C6B2E630080B50020FDF715FD18
:10568000002801D0FDF7D2F901BD80B50120FDF75A
:105690000CFD01BD80B50220FDF707FD01BD80B501
:1056A0000320FDF702FD01BD80B50420FDF7FDFCE0
:1056B00001BD80B50520FDF7F8FC01BD80B50620D1
:1056C000FDF7F3FC01BD000072B609480949086006
:1056D000BFF34F8F002000210A4AE2E802016A4529
:1056E000FBD1054FB847054FB847054FB847FEE710
:1056F0000000081008ED00E0115208102D580810A5
:10570000A959081000FF0708FFFF0708443A5C7317
:105710006D6172746361725C656D7074795F7072D3
:105720006F6A6563745C6C69627261726965735CEF
:105730007A665F636F6D6D6F6E5C7A665F636F6DC7
:105740006D6F6E5F6669666F2E630000443A5C732E
:105750006D6172746361725C656D7074795F707293
:105760006F6A6563745C6C69627261726965735CAF
:105770007A665F6472697665725C7A665F64726984
:105780007665725F7370692E63000000443A5C7343
:105790006D6172746361725C656D7074795F707253
:1057A0006F6A6563745C6C69627261726965735C6F
:1057B0007A665F6472697665725C7A665F64726944
:1057C0007665725F756172742E63000030B40025D7
:1057D00012E050F8042BD30744BF4A44521E091F5D
:1057E000042942F8045BFAD213468C0744BF1580A3
:1057F0009B1CC90748BF1D7050F8041B0029E8D145
:1058000030BC70474C534D36445356313658206E99
:105810006F7420666F756E642C20636865636B20FF
:10582000776972696E67210D0A00000010B507499B
:1058300079441831064C7C44163404E00A68081D8B
:10584000114488470146A142F8D110BD2C00000048
:10585000480000004EF68851CEF20001086840F47E
:1058600070000860BFF34F8FBFF36F8F4FF0017070
:10587000E1EE100A7047000055FFFFFF080300002B
:105880004C06020800000000A7B6FFFF7C020000E3
:10589000AA000000000002084C534D364453563114
:1058A00036582053464C5020696E697420666169F1
:1058B0006C6564210D0A000004207146084202D084
:1058C000EFF3098001E0EFF3088000B50149884754
:1058D00000BD00005545081080B58DF8000001227C
:1058E00069460120FDF7B2F8012802D19DF80000B9
:1058F00002BD4FF0FF3002BD0000000000000000BC
:10590000801C800803D0401C801EFCD100BF704763
:10591000EFF3108072B6704780F310887047000074
:1059200000F00EF8002801D0FFF780FFAFF30080F1
:105930000020AFF30080FFF7A1FD00F003F80000A6
:105940000020704700F000B807463846FCF792F98F
:10595000FBE700004C534D3644535631365820690E
:105960006E6974206661696C6564210D0A0000002F
:105970000D0A66696C65202573206C696E652025AB
:10598000643A2025732E0D0A0000000004207146A1
:10599000084201D0EFF30980EFF3088000B5014918
:1059A000884700BD455A08100548014603B46846BB
:1059B00080F30988AFF30080FFF74CFFFFF7B0FFDB
:1059C000A5EDF5FE00127A00000000000024F400AE
:1059D0000080000000800000008000000D0A666961
:1059E0006C65202573206C696E652025642E0D0A78
:1059F0000000000038B504460D462846FFF76CFF4E
:105A0000A84218BF0024204632BD000066696C65BC
:105A10003A206D646B2F257300000000417373659D
:105A20007274206572726F720000000066696C65A6
:105A30003A202573000000006C696E653A202564E9
:105A400000000000816911F8021CC9B201607047B2
:105A500000000208FFFF070800000000000000002F
:105A60000000000000000000000000000000000036
:105A70000000000000000000000000000000000026
:105A80000000000000000000000000000000000016
:105A90000000000000000000000000000000000006
:105AA00000000000000000000000000000000000F6
:105AB00000000000000000000000000000000000E6
:105AC00000000000000000000000807FFFF7FEBF24
:105AD000FFF7F2BEFFF7F0BEFFF7EEBEFFF7FEBF27
